:10047D0046756E6374696F6E3A20303320303400E8
:10048D0052483A0054656D703A004352433A205435
:10049D0072756500446174613A20004352433A20FD
:1004AD0057726F6E670053656E736F72204E6F7467
:0B04BD0020436F6E6E65637465640081
:1005D80003310300040F22000000000000000000A7
:1005E8000000000000001E340000000000000000B1
:1005F80000000000000000000000000000000000F3
:06060800000000000000EC
:0706C500C2811206CCD281B4
:0706CC000000000000002205
:10066800D3EF9400EE940040147D7C7C00ED1D7067
:0D067800011CED4C70F7EF1F70E61E80E3D3
:010685002252
:1004C800E4759850F58775C830F5C9750C80750BBB
:1004D80004F50AF509AF0CAE0BAD0AAC097B20FA9E
:1004E800F9F812011F8F0C8E0B8D0A8C09E4AC06EB
:1004F800AD07C39DFDE49CF5CBAF05EFF5CAC298E7
:08050800D29CD2ACD2CAD2AFE2
:0105100022C8
:0506D3007F201206D893
:0806D8008F993099FDC29922AF
:03002300020700D1
:08070000309805C298859908A4
:0107080032BE
:0F06B600D280D2811206CCC2801206CCC2812221
:08070900C2801206C7D2802253
:0A06EC00C2801206C5C281D280222E
:0A06F600D2801206C5D280C2812214
:04068600FF1200035C
:10068A00C200C281D2801206C7208004D200800232
:06069A00C200C281A200B3
:0106A0002237
:100003007E08C2811206CCEF20E704C2808002D2B0
:0E00130080D2811206CCEF25E0FFDEE6C2812E
:0100210022BC
:10060F007E08E4FFF50ED280C2811206CC7801EF8E
:10061F0008800123D8FDFF1ED2811206CC30800541
:0D062F0043070180035307FEEE70DDC2811A
:01063C00229B
:06059E008B0A8A0B890C98
:1005A4001206B612000312068A4002801BE4FDED17
:1005B400C3950D501AAB0AAA0BA90C8D8275830042
:1005C40012003F1206864004752101220D80E012BC
:0305D4000709D341
:0105D7002201
:0603C2008B0A8A0B890C76
:1003C8001206B6EF44011206864004752101221276
:1003D80006CC1206CC1206CCE4FDE50D14FFEDC3E5
:1003E8009F501812060FAB0AAA0BA90C8D827583B1
:1003F80000EF12006C1206EC0D80DF12060FAB0A3C
:10040800E50D7C00250CF9EC350BFA90FFFFEF1297
:09041800006C1206F6120709D36C
:0104210022B8
:080422008B0F8A1089118D1265
:10042A0074FFF513F514AF121512EF6041AB0F0507
:10043A0011E511AA107002051014F91200266214AF
:10044A00E4FCECC3940850DEE51430E013E513C372
:10045A0013F513E51413F5146314016313A0800B49
:10046A00E513C313F513E51413F5140C80D4AE1376
:02047A00AF14BD
:01047C00225D
:080511008D0C8B098A0A890B8D
:10051900E50C24FEFD1204228E0D8F0E7E0074FF61
:10052900250CF582EE34FFF583AB09AA0AA90B1253
:10053900003FFDE50DB5051474FE250CF582EE347A
:0E054900FFF58312003FB50E037FFF227F00F7
:010557002281
:1006A1001206B67FB812000312068A7F027E00127C
:0506B1000668020709C4
:06063D008B528A53895420
:100643008B098A0A890BAB09AA0AA90B1200266037
:1006530013050BE50B7002050A14F9120026FF12AD
:0506630006D880E22230
:0A02D2008B098A0A890BAB05AA0408
:1002DC007C007D0AAF03AE0212008EED2430F50FC8
:1002EC00750E2E7C007D0AAF03AE0212008E7C00D0
:1002FC007D0A12008EED2430F50DAE02AF037C00AA
:10030C007D6412008E7C007D0A12008EED2430F587
:10031C000CAB09AA0AA90B1200266013050BE50BFE
:10032C007002050A14F9120026FF1206D880E27F2B
:10033C00201206D8E4FE740C2EF8E6FF1206D80E36
:03034C00BE04F3F9
:01034F00228B
:060350008B098A0A890BEB
:10035600AB09AA0AA90B1200266013050BE50B7060
:1003660002050A14F9120026FF1206D880E27F2041
:100376001206D8E4FEAB0CAA0DA90E8E8275830078
:1003860012003FFFC4540FF50FEF540FF510E4FDB4
:10039600740F2DF8E6FFD394094006EF2437F68054
:1003A60004743026F6740F2DF8E6FF1206D80DBD3C
:0B03B60002DE7F201206D80EBE08BA3F
:0103C1002219
:1001B100E5216003020238FB7A0079227D081205ED
:1001C10011EF7BFF60507A04797D12063D1206D350
:1001D1007BFF7A04798D8B528A538954E524FE7C06
:1001E10000E42525FFEC3EAD07FC1202D21206D336
:1001F1007BFF7A0479918B528A538954E526FE7CE0
:1002010000E42527FDEC3EFC1202D21206D37BFF4F
:100211007A04799780277A0479A18B528A53895479
:10022100750C00750D00750E221203501206D37B5A
:10023100FF7A0479A880067BFF7A0479B312063D20
:050241007F0A0206D84F
:0B06E000E4FF7E0F7822E4F608DEFC49
:0106EB0022EC
:10055800D281D2801204C81206E01206E0E4F52126
:100568001206A17B007A007931750D037FB8120558
:100578009E7F027E001206687B007A007922750D44
:10058800087FB81203C2D281D2801201B17FD07E17
:060598000712066880C492
:03000000020246B3
:0C024600787FE4F6D8FD75815402028D2B
:10002600BB010689828A83E0225002E722BBFE02D8
:09003600E32289828A83E493220B
:10003F00BB010CE58229F582E5833AF583E0225076
:10004F0006E92582F8E622BBFE06E92582F8E222C0
:0D005F00E58229F582E5833AF583E49322DA
:10006C00F8BB010DE58229F582E5833AF583E8F0CA
:10007C00225006E92582C8F622BBFE05E92582C876
:02008C00F2225E
:10008E00BC000BBE0029EF8DF084FFADF022E4CC56
:10009E00F875F008EF2FFFEE33FEEC33FCEE9DEC1F
:1000AE00984005FCEE9DFE0FD5F0E9E4CEFD22ED65
:1000BE00F8F5F0EE8420D21CFEADF075F008EF2FAF
:1000CE00FFED33FD4007985006D5F0F222C398FDA0
:0500DE000FD5F0EA223D
:1000E30075F008758200EF2FFFEE33FECD33CDCCD4
:1000F30033CCC58233C5829BED9AEC99E582984057
:100103000CF582EE9BFEED9AFDEC99FC0FD5F0D633
:10011300E4CEFBE4CDFAE4CCF9A88222B800C1B95D
:100123000059BA002DEC8BF084CFCECDFCE5F0CB9B
:10013300F97818EF2FFFEE33FEED33FDEC33FCEBD4
:1001430033FB10D703994004EB99FB0FD8E5E4F98F
:10015300FA227818EF2FFFEE33FEED33FDEC33FC7C
:10016300C933C910D7059BE99A4007EC9BFCE99A70
:10017300F90FD8E0E4C9FAE4CCFB2275F010EF2FB5
:10018300FFEE33FEED33FDCC33CCC833C810D707B5
:100193009BEC9AE899400AED9BFDEC9AFCE899F8F0
:0E01A3000FD5F0DAE4CDFBE4CCFAE4C8F92283
:10025200020558E493A3F8E493A34003F68001F265
:1002620008DFF48029E493A3F85407240CC8C333AD
:10027200C4540F4420C8834004F456800146F6DF7C
:10028200E4800B01020408102040809005D8E47E2F
:10029200019360BCA3FF543F30E509541FFEE49371
:1002A200A360010ECF54C025E060A840B8E493A338
:1002B200FAE493A3F8E493A3C8C582C8CAC583CA63
:1002C200F0A3C8C582C8CAC583CADFE9DEE780BE1B
:01060E0000EB
:00000001FF
